:020000040800F2
:1000000000280020E91D0008E1020008E3020008C2
:10001000E5020008E7020008E9020008000000000D
:10002000000000000000000000000000EB020008DB
:10003000ED02000800000000EF020008F1020008D5
:10004000311E0008311E0008311E0008311E000854
:10005000311E0008311E0008F9020008311E000898
:1000600003030008311E0008311E0008311E00087D
:10007000311E0008311E0008311E0008311E000824
:10008000311E0008311E0008311E0008311E000814
:10009000311E0008311E0008311E0008311E000804
:1000A000311E00080D030008311E0008311E000833
:1000B000311E00081D03000800000000311E00086A
:1000C000311E00080000000000000000311E000882
:1000D00000000000311E0008311E00080000000072
:1000E000311E0008311E0008311E0008000000000B
:1000F0000000000000000000000000000000000000
:0C01000000000000000000005FF808F1A3
:10010C0010B5054C237833B9044B13B10448AFF345
:10011C0000800123237010BD180000200000000097
:10012C008C1E000808B5034B1BB103490348AFF301
:10013C00008008BD000000001C0000208C1E000880
:10014C0072B6FEE700B591B02822002106A801F096
:10015C008FFE0023019302930393049305930223D0
:10016C00069301230A9310230B9306A801F062F85F
:10017C0068B90F2301930021029103910491059119
:10018C0001A801F095FA20B911B05DF804FBFFF756
:10019C00D7FFFFF7D5FF000008B501F011F8FFF706
:1001AC00D1FF00F01DF801F0A5FD01F0D3FC0A4CC5
:1001BC00204600F00DFB0021204600F06FFE074C9E
:1001CC00204600F005FB0021204600F0D1FE042162
:1001DC00204600F0CDFEFEE75C000020A4000020CD
:1001EC002DE9F04188B000240494059406940794FA
:1001FC00334B9A6942F010029A619A6902F010022C
:10020C000192019A9A6942F004029A619A6902F089
:10021C0004020292029A9A6942F008029A619B695E
:10022C0003F008030393039BDFF89880224640F603
:10023C007F71404601F002FC234E22460A213046D3
:10024C0001F0FCFB01228021404601F0F7FB40F657
:10025C00FF7304930125059506950227079704A9BA
:10026C00404601F0DBFA0495184B0593069704A958
:10027C00304601F0D3FA0A230493059506950797A7
:10028C0004A9304601F0CAFA04230493104B0593D9
:10029C00069704A9304601F0C1FA224621460620F1
:1002AC0001F0FCFB062001F031FC2246214608201F
:1002BC0001F0F4FB082001F029FC08B0BDE8F08146
:1002CC000010024000100140000C014000003110F1
:1002DC0000001110FEE7FEE7FEE7FEE7FEE77047C1
:1002EC007047704708B500F07DFF08BD08B50120C8
:1002FC0001F0B4FB08BD08B5042001F0AFFB08BD4C
:10030C0008B5024800F0B2FA08BD00BF5C0000203E
:10031C0008B5024800F0AAFA08BD00BFA4000020EE
:10032C0010B50446012802D0042C11D010BD0221B6
:10033C00104801F089FB104B1B681BB10E4A136867
:10034C000A3B13600D4B1B680B4A12685A63EBE7B0
:10035C000821084801F078FB074B1B68542B03D885
:10036C00054A13680A331360044B1B68024A12686F
:10037C005A63DBE7000C0140340000205C000020D5
:10038C0030B402683B4B9A4209D002683A4B1B6866
:10039C009A4209D00268934228D030BC7047374A41
:1003AC00136801331360F0E735490A68013202F033
:1003BC0003020A603349CC6824F47064CC60CC68C6
:1003CC0024F0FF04CC60CC682F4D15F802C02F4DE3
:1003DC0015F80CC044EA0C04CC60CC6808324FF021
:1003EC00010C0CFA02F22243CA60D3E7284B1B68BB
:1003FC00002BD2D0264C2368264AA2FB03239B0950
:10040C00214803702268244BA3FB0212D2084270CD
:10041C002168A3FB0121C908A3FB0152D20802EBFE
:10042C008202A1EB420282702268A3FB0213DB085A
:10043C0003EB8303A2EB4303C370114A136801332C
:10044C0003F0030313600F4AD16821F47061D1608B
:10045C00D16821F0FF01D160D168C05C0B4C205CED
:10046C000143D160D1680833012000FA03F30B4338
:10047C00D36092E7000400405C0000203C000020A8
:10048C004400002000100140000000200400002067
:10049C0038000020D34D6210CDCCCCCC10B5304BF5
:1004AC001B78012B17D0022B32D003B110BD026880
:1004BC002C4B9A42FAD1037F012BF7D1002100F08B
:1004CC00B9F983B2284A1380284B00221A60244BB6
:1004DC0001221A70EAE70268224B9A42E6D1037FA6
:1004EC00022BE3D1042100F0A5F983B2204A13803A
:1004FC0013889BB21D4A126803EB02431A4A1288F6
:10050C0092B29B1A1B4A1360154B02221A70CDE74C
:10051C000268144B9A42C9D1037F012BC6D100212A
:10052C0000F088F983B2144A138013889BB20F48E9
:10053C00016803EB01430C4C218889B25B1A0F490B
:10054C000B6009680E4BB3FBF1F30E490B6013887B
:10055C009BB2238000230360014B02221A70A5E793
:10056C004000002000040040540000203C0000200B
:10057C005200002048000020500000204C000020B9
:10058C0000127A003800002082B00E4B9A6942F0BB
:10059C0001029A619A6902F001020092009ADA69EA
:1005AC0042F08052DA61DB6903F080530193019BC6
:1005BC00054A536823F0E06343F08063536002B054
:1005CC00704700BF001002400000014070B4036A85
:1005DC0023F001030362036A4668826922F0730206
:1005EC000C6844EA020523F002028B6813430D4C9D
:1005FC00A04209D00B4CA0420DD0466085614A68E0
:10060C004263036270BC704723F00803CA6813434B
:10061C0023F00403EEE726F440764A6932438E69F0
:10062C001643EAE7002C014030B4036A23F48073CC
:10063C000362036A4568C26922F073020C682243A4
:10064C0023F400738C6843EA04230F4CA04209D0B6
:10065C000D4CA0420ED04560C2614A68C263036271
:10066C0030BC704723F40063CC6843EA042323F4C2
:10067C008063EDE725F440554C6945EA04158C6917
:10068C0045EA0415E7E700BF002C014030B4036ACB
:10069C0023F480530362036A4468C26922F4E6427D
:1006AC000D6842EA052223F400538D6843EA0533B2
:1006BC00074DA84206D04460C2614A6802640362D6
:1006CC0030BC704724F480444D6944EA8514F2E749
:1006DC00002C014010B4036A046A24F00104046283
:1006EC00846924F0F00C4CEA021223F00A030B4349
:1006FC008261036210BC704730B4046A24F01004A9
:10070C0004628469056A24F4407C4CEA022C2CF4C3
:10071C00704C1B039BB243EA0C0325F0A0050901A6
:10072C0001F0A00129438361016230BC704710B411
:10073C00046A24F0100404628469036A24F4704C83
:10074C004CEA023223F0A00343EA011382610362F4
:10075C0010BC704730B4046A24F480740462C46919
:10076C00056A24F0030C4CEA020C2CF0F00C1B0173
:10077C00DBB243EA0C0325F40075090201F40071A5
:10078C002943C361016230BC704730B4046A24F45D
:10079C0080540462C469056A24F4407C4CEA022C3F
:1007AC002CF4704C1B039BB243EA0C0325F400554C
:1007BC00090301F400512943C361016230BC704745
:1007CC00836823F070030B4343F007038360704787
:1007DC0090F83D30DBB2012B23D1022380F83D3061
:1007EC000268D36843F00103D36003680F4A934255
:1007FC000CD0B3F1804F09D0A2F59432934205D0BE
:10080C001A6842F001021A60002070479A6802F0E0
:10081C000702062A07D01A6842F001021A6000206B
:10082C007047012070470020704700BF002C01402A
:10083C00704770470C2914D8DFE801F00713131325
:10084C000A1313130D13131310000368586B70471E
:10085C000368986B70470368D86B70470368186C13
:10086C0070470020704770477047704710B50446BA
:10087C0003681A6912F0020F11D0DA6812F0020F35
:10088C000DD06FF002021A610123037703689B6994
:10089C0013F0030F70D0FFF701FE002323772368BA
:1008AC001A6912F0040F12D0DA6812F0040F0ED08D
:1008BC006FF004021A610223237723689B6913F4F7
:1008CC00407F5FD02046FFF7E9FD002323772368A4
:1008DC001A6912F0080F12D0DA6812F0080F0ED055
:1008EC006FF008021A61042323772368DB6913F085
:1008FC00030F4ED02046FFF7D1FD0023237723684A
:10090C001A6912F0100F12D0DA6812F0100F0ED014
:10091C006FF010021A61082323772368DB6913F444
:10092C00407F3DD02046FFF7B9FD00232377236895
:10093C001A6912F0010F03D0DA6812F0010F36D1E8
:10094C0023681A6912F0800F03D0DA6812F0800F56
:10095C0034D123681A6912F0400F03D0DA6812F010
:10096C00400F32D123681A6912F0200F03D0DA68D5
:10097C0012F0200F30D110BDFFF775FF2046FFF7A6
:10098C0073FF8AE72046FFF76EFF2046FFF76CFFE8
:10099C009BE72046FFF767FF2046FFF765FFACE7B4
:1009AC002046FFF760FF2046FFF75EFFBDE76FF0C4
:1009BC0001021A612046FFF7E3FCC1E76FF08002E9
:1009CC001A61204600F0D4FBC3E76FF040021A61B5
:1009DC002046FFF74AFFC5E76FF020021A61204658
:1009EC0000F0C5FBC7E700000368174A904206D029
:1009FC00B0F1804F03D0A2F59432904203D123F092
:100A0C0070034A681343104A904206D0B0F1804FED
:100A1C0003D0A2F59432904203D123F44073CA68F8
:100A2C00134323F080034A69134303608B68C3624A
:100A3C000B688362044B984202D0012343617047D8
:100A4C000B690363F9E700BF002C014040B310B5FC
:100A5C00044690F83D30F3B1022384F83D30214632
:100A6C0051F8040BFFF7C0FF012384F8463084F8DB
:100A7C003E3084F83F3084F8403084F8413084F8BC
:100A8C00423084F8433084F8443084F8453084F89C
:100A9C003D30002010BD80F83C3001F0B5F8DBE7AC
:100AAC000120704740B310B5044690F83D30F3B1C7
:100ABC00022384F83D30214651F8040BFFF794FFD4
:100ACC00012384F8463084F83E3084F83F3084F8B3
:100ADC00403084F8413084F8423084F8433084F854
:100AEC00443084F8453084F83D30002010BD80F847
:100AFC003C30FFF79DFEDBE70120704740B310B59B
:100B0C00044690F83D30F3B1022384F83D30214681
:100B1C0051F8040BFFF768FF012384F8463084F882
:100B2C003E3084F83F3084F8403084F8413084F80B
:100B3C00423084F8433084F8443084F8453084F8EB
:100B4C003D30002010BD80F83C30FFF772FEDBE733
:100B5C000120704730B4036A23F010030362036A68
:100B6C004468826922F4E6420D6842EA052223F0C9
:100B7C0020038D6843EA05130E4DA84209D00D4D94
:100B8C00A8420ED0446082614A688263036230BC22
:100B9C00704723F08003CD6843EA051323F040032C
:100BAC00EDE724F440644D6944EA85048D6944EA18
:100BBC008504E7E7002C014038B590F83C30012B58
:100BCC0060D004460D46012380F83C300C2A1AD81C
:100BDC00DFE802F0071919191D191919311919191A
:100BEC0044000068FFF7F2FC2268936943F00803A5
:100BFC0093612268936923F00403936122689369DB
:100C0C0029690B439361002084F83C0038BD0068CF
:100C1C00FFF7A0FF2268936943F400639361226895
:100C2C00936923F48063936122689369296943EA89
:100C3C0001239361E7E70068FFF7F6FC2268D369AC
:100C4C0043F00803D3612268D36923F00403D36112
:100C5C002268D36929690B43D361D4E70068FFF795
:100C6C0015FD2268D36943F40063D3612268D3690C
:100C7C0023F48063D3612268D369296943EA012391
:100C8C00D361C0E70220C1E770B4046A24F0010408
:100C9C0004628469056A0F4EB04209D0B0F1804FEE
:100CAC0006D0A6F59436B04202D044F0010202E020
:100CBC0024F00304224322F0F0021B01DBB21343A5
:100CCC0025F00A0201F00A0111438361016270BC34
:100CDC00704700BF002C014038B590F83C30012B18
:100CEC0052D004460D46012380F83C30C2B1042A90
:100CFC0027D0082A37D0CB684A6809680068FFF704
:100D0C0044FD2268D36923F44063D3612268D3691C
:100D1C00A96843EA0123D361002084F83C0038BD64
:100D2C00CB684A6809680068FFF7AEFF22689369D0
:100D3C0023F00C03936122689369A9680B439361B8
:100D4C00EAE7CB684A6809680068FFF7D5FC2268B7
:100D5C00936923F44063936122689369A96843EA19
:100D6C0001239361D8E7CB684A6809680068FFF7EC
:100D7C00F1FC2268D36923F00C03D3612268D36998
:100D8C00A9680B43D361C7E70220C8E710B4846895
:100D9C0024F47F4C42EA03220A4342EA0C028260AA
:100DAC0010BC704790F83C30012B66D010B504464F
:100DBC00012380F83C30022380F83D3002689368B0
:100DCC0023F47F4323F0770393600B68602B40D0B0
:100DDC0022D8402B47D00BD9502B0ED1CA6849686A
:100DEC000068FFF777FC50212068FFF7E9FC04E06E
:100DFC00202B0CD008D9302B09D0012384F83D309E
:100E0C00002084F83C0010BD0BB1102BF5D1194615
:100E1C002068FFF7D5FCF0E7702B0ED0B3F5005F20
:100E2C00EBD1CB684A6889680068FFF7AFFF22688E
:100E3C00936843F480439360DFE7CB684A68896822
:100E4C000068FFF7A3FF2268936843F07703936071
:100E5C00D3E7CA6849680068FFF769FC602120681D
:100E6C00FFF7AEFCC9E7CA6849680068FFF732FCB7
:100E7C0040212068FFF7A4FCBFE70220704701F077
:100E8C001F01012303FA01FC036A23EA0C0303622A
:100E9C00036A02FA01F10B430362704710B5044672
:100EAC00084631BB94F83E30DBB2013B18BF01233E
:100EBC00002B57D1002835D1022384F83E30012273
:100ECC0001462068FFF7DBFF2368284A934239D09C
:100EDC002368264A93423AD0B3F1804F37D0A2F51B
:100EEC009432934233D01A6842F001021A60002007
:100EFC0039E0042908D008290DD094F84130DBB230
:100F0C00013B18BF0123D3E794F83F30DBB2013B20
:100F1C0018BF0123CCE794F84030DBB2013B18BF7B
:100F2C000123C5E7042805D0082807D0022384F83C
:100F3C004130C4E7022384F83F30C0E7022384F831
:100F4C004030BCE75A6C42F400425A64C0E79A68DD
:100F5C0002F00702062A07D01A6842F001021A6052
:100F6C00002000E0012010BD0020FCE7002C014017
:100F7C0010B504460B4601BB90F83E00C0B263BBF3
:100F8C0094F84220D2B2012840F08F80012A40F020
:100F9C008D8093BB022284F83E20002B3DD102228F
:100FAC0084F842200C2B4DD8DFE803F0474C4C4C16
:100FBC00624C4C4C684C4C4C6E00042905D00829F2
:100FCC0007D090F84100C0B2D9E790F83F00C0B20A
:100FDC00D5E790F84000C0B2D1E7042B05D0082B20
:100FEC0007D094F84520D2B2CDE794F84320D2B282
:100FFC00C9E794F84420D2B2C5E7042B05D0082BDE
:10100C0007D0022284F84120C7E7022284F83F204F
:10101C00C3E7022284F84020BFE7042B05D0082B3D
:10102C0007D0022284F84520BCE7022284F8432032
:10103C00B8E7022284F84420B4E72168CA6842F079
:10104C000202CA60012219462068FFF718FF2368C4
:10105C00184A93421ED0B3F1804F1BD0A2F59432A4
:10106C00934217D01A6842F001021A6000201DE06A
:10107C002168CA6842F00402CA60E3E72168CA68C2
:10108C0042F00802CA60DDE72168CA6842F010022B
:10109C00CA60D7E79A6802F00702062A07D01A68D6
:1010AC0042F001021A60002000E0012010BD002077
:1010BC00FCE700BF002C014090F83C30012B28D0FD
:1010CC0010B4012380F83C30022380F83D300368D3
:1010DC005A689C6822F0700C0A6842EA0C025A604A
:1010EC0003680D4A934206D0B3F1804F03D0A2F5AA
:1010FC009432934204D124F080044A6814439C60D7
:10110C00012380F83D30002380F83C30184610BC99
:10111C0070470220704700BF002C014090F83C3013
:10112C00012B22D0012380F83C30CB6823F4407390
:10113C008A68134323F480634A68134323F40063DF
:10114C000A68134323F480530A69134323F40053AE
:10115C004A69134323F48043CA69134302685364F6
:10116C00002380F83C3018467047022070477047C7
:10117C007047000010B504460E4B18784FF47A7384
:10118C00B3FBF0F30C4A1068B0FBF3F000F0CCFCAE
:10119C0068B90F2C01D901200AE0002221464FF03A
:1011AC00FF3000F07BFC054B1C60002000E00120B0
:1011BC0010BD00BF0E000020140000201000002005
:1011CC0008B5074A136843F010031360032000F0BE
:1011DC0053FC0F20FFF7CEFFFFF7D6F9002008BD18
:1011EC0000200240034A1168034B1B780B44136028
:1011FC00704700BF580000200E000020014B1868FB
:10120C00704700BF5800002082B0084B1B68084A8A
:10121C00A2FB03235B0A00FB03F3019300BF019BBA
:10122C005A1E0192002BF9D102B070471400002015
:10123C00D34D6210002800F0F18170B582B00446E5
:10124C00036813F0010F2CD0994B5B6803F00C036F
:10125C00042B1DD0964B5B6803F00C03082B12D0AB
:10126C006368B3F5803F41D0002B55D103F1804327
:10127C0003F504331A6822F480321A601A6822F4D7
:10128C0080221A6037E08A4B5B6813F4803FE7D00A
:10129C00874B1B6813F4003F03D06368002B00F0EE
:1012AC00BF81236813F0020F75D0814B5B6813F07C
:1012BC000C0F5FD07E4B5B6803F00C03082B54D0F3
:1012CC002369002B00F08A807A4B01221A60FFF709
:1012DC0095FF0546764B1B6813F0020F75D1FFF78F
:1012EC008DFF401B0228F5D903209EE1704A13683C
:1012FC0043F480331360636843B3FFF77FFF054605
:10130C006B4B1B6813F4003FCBD1FFF777FF401BEF
:10131C006428F5D9032088E1B3F5A02F09D0644BDC
:10132C001A6822F480321A601A6822F480221A6039
:10133C00E1E703F18043A3F53C331A6842F48022C1
:10134C001A601A6842F480321A60D4E7FFF756FF2D
:10135C000546574B1B6813F4003FA2D0FFF74EFF16
:10136C00401B6428F5D903205FE1514B5B6813F4F3
:10137C00803FA5D14E4B1B6813F0020F03D023699D
:10138C00012B40F04F814A4A136823F0F80361693E
:10139C0043EAC1031360236813F0080F33D0A36929
:1013AC00002B5CD0434B0122C3F88024FFF726FFAF
:1013BC0005463F4B5B6A13F0020F21D1FFF71EFF6E
:1013CC00401B0228F5D903202FE1394A136823F07A
:1013DC00F803616943EAC1031360DCE7354B002273
:1013EC001A60FFF70BFF0546314B1B6813F0020F19
:1013FC00D1D0FFF703FF401B0228F5D9032014E1DD
:10140C000120FFF701FF236813F0040F00F0968012
:10141C00274BDB6913F0805F34D1254BDA6942F03E
:10142C008052DA61DB6903F080530193019B012543
:10143C00214B1B6813F4807F26D0E368012B3DD031
:10144C00002B53D103F1804303F504331A6A22F0C5
:10145C0001021A621A6A22F004021A6233E0154B76
:10146C000022C3F88024FFF7C9FE0546104B5B6AC7
:10147C0013F0020FC7D0FFF7C1FE401B0228F5D9AD
:10148C000320D2E00025D3E70B4A136843F48073A2
:10149C001360FFF7B3FE0646074B1B6813F4807FFF
:1014AC00CBD1FFF7ABFE801B6428F5D90320BCE041
:1014BC000010024000004242007000405F4A136A74
:1014CC0043F001031362E36833B3FFF797FE06465C
:1014DC005A4B1B6A13F0020F2FD1FFF78FFE801BA4
:1014EC0041F288339842F3D903209EE0052B09D0B2
:1014FC00524B1A6A22F001021A621A6A22F0040292
:10150C001A62E0E74D4B1A6A42F004021A621A6A38
:10151C0042F001021A62D6E7FFF770FE0646474B0F
:10152C001B6A13F0020F08D0FFF768FE801B41F214
:10153C0088339842F3D9032077E0E5B9E369002BAF
:10154C0072D03E4A526802F00C02082A56D0022B86
:10155C0017D03B4B00221A66FFF750FE0446374B60
:10156C001B6813F0007F47D0FFF748FE001B0228D2
:10157C00F5D9032059E0314AD36923F08053D36164
:10158C00DCE72F4B00221A66FFF738FE05462B4B83
:10159C001B6813F0007F06D0FFF730FE401B0228BB
:1015AC00F5D9032041E0236AB3F5803F1AD02349D3
:1015BC004B6823F47413226A606A024313434B6032
:1015CC001F4B01221A66FFF719FE04461B4B1B68C2
:1015DC0013F0007F0ED1FFF711FE001B0228F5D986
:1015EC00032022E0154A536823F40033A1680B430F
:1015FC005360DCE7002018E0002016E0012B16D029
:10160C000E4B5B6803F48031226A914211D103F4D2
:10161C007013626A93420ED1002006E001207047DD
:10162C00012002E0012000E0002002B070BD01208A
:10163C00FBE70120F9E70120F7E700BF00100240AB
:10164C000000424286B0164B0FCB0DF1180C0CE982
:10165C000F0040F20123ADF80430124B5B6803F02D
:10166C000C02082A02D0104806B07047C3F383421C
:10167C00624412F8100C13F4803F0CD0094B5B68D9
:10168C00C3F34043634413F8143C074A02FB00F0D5
:10169C00B0FBF3F0E8E7054B03FB00F0E4E700BF19
:1016AC00A41E00080010024000127A0000093D0040
:1016BC00002800F0A08070B50D460446524B1B6804
:1016CC0003F007038B420BD24F4A136823F0070336
:1016DC000B431360136803F007038B4240F08D80BB
:1016EC00236813F0020F17D013F0040F04D0474AED
:1016FC00536843F4E0635360236813F0080F04D07D
:10170C00424A536843F460535360404A536823F091
:10171C00F003A1680B435360236813F0010F31D021
:10172C006368012B20D0022B25D0384A126812F0A6
:10173C00020F64D035494A6822F0030213434B6010
:10174C00FFF75CFD0646314B5B6803F00C036268E7
:10175C00B3EB820F16D0FFF751FD801B41F288339B
:10176C009842F0D9032045E0284A126812F4003F51
:10177C00E0D101203EE0254A126812F0007FD9D159
:10178C00012037E0204B1B6803F00703AB420AD95A
:10179C001D4A136823F007032B431360136803F0EF
:1017AC000703AB422DD1236813F0040F06D0174A60
:1017BC00536823F4E063E1680B435360236813F030
:1017CC00080F07D0114A536823F46053216943EA88
:1017DC00C1035360FFF736FF0C4B5B68C3F3031375
:1017EC000B4AD35CD8400B4B18600B4B1868FFF7B7
:1017FC00C1FC002070BD012070470120FAE70120D8
:10180C00F8E70120F6E700BF00200240001002407C
:10181C00B81E0008140000201000002070B582B023
:10182C000024A4468BE07F4DAA4210D007D97E4DF0
:10183C00AA420CD005F58035AA4208D015E0A5F5D2
:10184C008015AA4203D005F57025AA4209D18A68F1
:10185C00002A00F0BF80012A00F0B7804361082401
:10186C0003E0A5F58015AA42F1D0BEF1FF0F00F2FE
:10187C00B3800646BEF1FF0F00F2B0804FEA8C0237
:10188C0033680F25954023EA050304FA02F213434B
:10189C0033604B6813F0805F4FD0644B9A6942F011
:1018AC0001029A619B6903F001030193019B4FEACA
:1018BC009C02951C5E4B53F825600CF003039D00B5
:1018CC000F23AB4026EA03065A4B984200F08C805B
:1018DC0003F58063984200F0898003F58063984299
:1018EC0000F080800323AB4033430232504D45F867
:1018FC0022304B6813F4803F7AD04F4A136843EA86
:10190C000E0313604B6813F4003F77D04A4A5368B8
:10191C0043EA0E0353604B6813F4801F74D0464A9D
:10192C00936843EA0E0393604B6813F4001F71D065
:10193C00414AD36843EA0E03D3600CF1010C0A68E8
:10194C0032FA0CF36CD0012303FA0CF302EA030E07
:10195C0033EA0202F1D14A68122A3FF664AF122A26
:10196C0083D801A555F822F05B180008C1190008AE
:10197C00CB190008DD190008771800087718000843
:10198C0077180008771800087718000877180008EF
:10199C0077180008771800087718000877180008DF
:1019AC00771800087718000877180008C519000880
:1019BC00D1190008CC6858E7CC68043455E7CC68DA
:1019CC00083452E7CC680C344FE7036108244CE729
:1019DC0000244AE7042448E7061D4BE7ACF1080253
:1019EC0092004DE702237EE700237CE701237AE790
:1019FC00114A136823EA0E03136083E70E4A5368F7
:101A0C0023EA0E03536086E70B4A936823EA0E031E
:101A1C00936089E7084AD36823EA0E03D3608CE706
:101A2C0002B070BD00002210000031100010024006
:101A3C000000014000080140000401400AB10161AE
:101A4C007047090401617047C36801EA030221EA87
:101A5C00030141EA024101617047000008B5054BE2
:101A6C005B69034200D108BD024B5861FEF758FC7C
:101A7C00F9E700BF00040140074AD36823F4E06390
:101A8C001B041B0C000200F4E060034343F0BF6333
:101A9C0043F40033D360704700ED00E000B5194B00
:101AAC00DB68C3F30223C3F1070CBCF1040F28BF9E
:101ABC004FF0040C03F1040EBEF1060F18D9033BD2
:101ACC004FF0FF3E0EFA0CFC21EA0C0199400EFA85
:101ADC0003F322EA0303194300280BDB0901C9B203
:101AEC0000F1604000F5614080F800135DF804FBE4
:101AFC000023E5E700F00F000901C9B2024B1954AD
:101B0C00F4E700BF00ED00E014ED00E0002807DB77
:101B1C0000F01F02400901239340024A42F8203092
:101B2C00704700BF00E100E00138B0F1807F0BD2BC
:101B3C004FF0E0235861054AF02182F82310002071
:101B4C00986107221A6170470120704700ED00E090
:101B5C007047000000B58BB00023069307930893E1
:101B6C0009930493059300930193029303932448E0
:101B7C00244A0260436083604FF6FF72C2600361C7
:101B8C008361FEF763FF48BB4FF48053069306A9AD
:101B9C001B48FFF707F920BB1948FEF7AFFF18BB2E
:101BAC0000230493059304A91548FFF785FAF0B9AF
:101BBC00002200920123019302920392694610487D
:101BCC00FFF78AF8B0B902230093042269460C4847
:101BDC00FFF782F888B90BB05DF804FBFEF7B0FA9A
:101BEC00D2E7FEF7ADFAD7E7FEF7AAFAD8E7FEF789
:101BFC00A7FADDE7FEF7A4FAE5E7FEF7A1FAEAE7B4
:101C0C00A40000200004004000B589B00023049318
:101C1C0005930693079303681E4A934205D01E4A08
:101C2C00934215D009B05DF804FB1C4B9A6942F441
:101C3C0000629A619B6903F400630193019B00228B
:101C4C0011461920FFF72AFF1920FFF75FFFE9E77C
:101C5C00124BDA6942F00202DA61DA6902F002022E
:101C6C000292029A9A6942F004029A619B6903F00B
:101C7C0004030393039BC023049304A90848FFF7B0
:101C8C00CDFD002211461D20FFF708FF1D20FFF798
:101C9C003DFFC7E7002C014000040040001002404B
:101CAC000008014000B587B000230293039304930E
:101CBC00059302680D4B9A4202D007B05DF804FB05
:101CCC0003F564439A6942F004029A619B6903F03C
:101CDC0004030193019B4FF480730293022303933B
:101CEC00059302A90248FFF799FDE6E7002C014095
:101CFC000008014010B596B000241294139414946B
:101D0C0015941094119409940A940B940C940D94BA
:101D1C000E940F942022214601A800F0A9F82D481A
:101D2C002D4B036040F2E733436084604F23C36064
:101D3C00046144618461FEF789FE002838D14FF4B8
:101D4C008053129312A92348FFF72CF8002832D1A4
:101D5C002048FEF7A7FE002830D1002310931193E2
:101D6C0010A91C48FFF7A8F958BB60230993282336
:101D7C000A9300220B920C920D920E920F9209A9CB
:101D8C001448FEF719FFF8B900230193029303934B
:101D9C00049305934FF400520692089301A90D4841
:101DAC00FFF7BCF998B90B48FFF77CFF16B010BDD4
:101DBC00FEF7C6F9C3E7FEF7C3F9C9E7FEF7C0F9AA
:101DCC00CBE7FEF7BDF9D0E7FEF7BAF9DCE7FEF793
:101DDC00B7F9E8E75C000020002C01400C480D49E5
:101DEC000D4A002302E0D458C4500433C4188C426A
:101DFC00F9D30A4A0A4C002301E013600432A242D0
:101E0C00FBD3FFF7A5FE00F00FF8FEF7C5F97047FE
:101E1C000000002018000020D01E00081800002030
:101E2C00EC000020FEE7000070B500260C4D0D4CB8
:101E3C00641BA410A64209D100F022F800260A4D1A
:101E4C000A4C641BA410A64205D170BD55F8043B86
:101E5C0098470136EEE755F8043B98470136F2E710
:101E6C00C81E0008C81E0008C81E0008CC1E0008AA
:101E7C0003460244934200D1704703F8011BF9E773
:101E8C00F8B500BFF8BC08BC9E467047F8B500BF5B
:081E9C00F8BC08BC9E4670472B
:101EA40002030405060708090A0B0C0D0E0F101097
:101EB4000000000000000000000000000102030414
:041EC40006070809FC
:041EC80031010008DC
:041ECC000D010008FC
:101ED0000102030481CF9286CCA4A08F80840100EC
:081EE000100000000024F400D2
:0400000508001DE9E9
:00000001FF
